{
  "_format": "hh-sol-artifact-1",
  "contractName": "Batcher",
  "sourceName": "contracts/Batcher.sol",
  "abi": [
    {
      "anonymous": false,
      "inputs": [
        {
          "indexed": false,
          "internalType": "uint256",
          "name": "batchSize",
          "type": "uint256"
        },
        {
          "indexed": false,
          "internalType": "uint256",
          "name": "totalAmount",
          "type": "uint256"
        },
        {
          "indexed": false,
          "internalType": "uint256",
          "name": "gasUsed",
          "type": "uint256"
        }
      ],
      "name": "BatchExecuted",
      "type": "event"
    },
    {
      "anonymous": false,
      "inputs": [
        {
          "indexed": true,
          "internalType": "address",
          "name": "recipient",
          "type": "address"
        },
        {
          "indexed": false,
          "internalType": "uint256",
          "name": "amount",
          "type": "uint256"
        },
        {
          "indexed": false,
          "internalType": "uint256",
          "name": "gasUsed",
          "type": "uint256"
        }
      ],
      "name": "TransferExecuted",
      "type": "event"
    },
    {
      "inputs": [
        {
          "internalType": "address[]",
          "name": "recipients",
          "type": "address[]"
        },
        {
          "internalType": "uint256[]",
          "name": "amounts",
          "type": "uint256[]"
        }
      ],
      "name": "executeBatch",
      "outputs": [],
      "stateMutability": "payable",
      "type": "function"
    }
  ],
  "bytecode": "0x6080604052348015600f57600080fd5b506104a48061001f6000396000f3fe60806040526004361061001e5760003560e01c8063bb95336714610023575b600080fd5b610036610031366004610375565b610038565b005b60005a905083821461008a5760405162461bcd60e51b8152602060048201526016602482015275082e4e4c2f2e640d8cadccee8d040dad2e6dac2e8c6d60531b60448201526064015b60405180910390fd5b836100c55760405162461bcd60e51b815260206004820152600b60248201526a08adae0e8f240c4c2e8c6d60ab1b6044820152606401610081565b6000805b838110156100ff578484828181106100e3576100e36103e6565b90506020020135826100f59190610412565b91506001016100c9565b508034146101445760405162461bcd60e51b8152602060048201526012602482015271125b98dbdc9c9958dd08115512081cd95b9d60721b6044820152606401610081565b60005b858110156102ce5760005a90506000888884818110610168576101686103e6565b905060200201602081019061017d919061042b565b6001600160a01b0316878785818110610198576101986103e6565b9050602002013560405160006040518083038185875af1925050503d80600081146101df576040519150601f19603f3d011682016040523d82523d6000602084013e6101e4565b606091505b5050905060005a6101f5908461045b565b9050816102395760405162461bcd60e51b81526020600482015260126024820152711d1c985b9cd858dd1a5bdb8819985a5b195960721b6044820152606401610081565b89898581811061024b5761024b6103e6565b9050602002016020810190610260919061042b565b6001600160a01b03167ff8d62a11d316e69c1460662f86b7046003826db86fdc0d5ffa8c3adaa24f0a5889898781811061029c5761029c6103e6565b90506020020135836040516102bb929190918252602082015260400190565b60405180910390a2505050600101610147565b5060005a6102dc908461045b565b60408051888152602081018590529081018290529091507f2403003b183ff811dedab647749b7525f94e39ff05e4a7b4f02743c21b6c16229060600160405180910390a150505050505050565b60008083601f84011261033b57600080fd5b50813567ffffffffffffffff81111561035357600080fd5b6020830191508360208260051b850101111561036e57600080fd5b9250929050565b6000806000806040858703121561038b57600080fd5b843567ffffffffffffffff8111156103a257600080fd5b6103ae87828801610329565b909550935050602085013567ffffffffffffffff8111156103ce57600080fd5b6103da87828801610329565b95989497509550505050565b634e487b7160e01b600052603260045260246000fd5b634e487b7160e01b600052601160045260246000fd5b80820180821115610425576104256103fc565b92915050565b60006020828403121561043d57600080fd5b81356001600160a01b038116811461045457600080fd5b9392505050565b81810381811115610425576104256103fc56fea2646970667358221220f74172bec29ce191ec2c36a7fbbe1f5178b9fb5030901b669cf7ce5593aa615164736f6c634300081c0033",
  "linkReferences": {},
  "deployedLinkReferences": {}
}