{
  "_format": "hh-sol-artifact-1",
  "contractName": "MultiBatch",
  "sourceName": "contracts/MultiBatch.sol",
  "abi": [
    {
      "inputs": [
        {
          "internalType": "address[]",
          "name": "senders",
          "type": "address[]"
        },
        {
          "internalType": "address[]",
          "name": "recipients",
          "type": "address[]"
        },
        {
          "internalType": "uint256[]",
          "name": "amounts",
          "type": "uint256[]"
        }
      ],
      "name": "executeBatch",
      "outputs": [],
      "stateMutability": "nonpayable",
      "type": "function"
    },
    {
      "inputs": [],
      "name": "targetToken",
      "outputs": [
        {
          "internalType": "contract IERC20",
          "name": "",
          "type": "address"
        }
      ],
      "stateMutability": "view",
      "type": "function"
    }
  ],
  "bytecode": "0x6080604052348015600f57600080fd5b506103c38061001f6000396000f3fe608060405234801561001057600080fd5b50600436106100365760003560e01c8063327107f71461003b578063bcb97f7414610072575b600080fd5b61005673a0b86991c6218b36c1d19d4a2e9eb0ce3606eb4881565b6040516001600160a01b03909116815260200160405180910390f35b61008561008036600461027f565b610087565b005b84838114801561009657508181145b6100d85760405162461bcd60e51b815260206004820152600e60248201526d082e4e4c2f240dad2e6dac2e8c6d60931b60448201526064015b60405180910390fd5b60005b8181101561022957600073a0b86991c6218b36c1d19d4a2e9eb0ce3606eb486323b872dd8a8a8581811061011157610111610325565b9050602002016020810190610126919061033b565b89898681811061013857610138610325565b905060200201602081019061014d919061033b565b88888781811061015f5761015f610325565b6040516001600160e01b031960e088901b1681526001600160a01b039586166004820152949093166024850152506020909102013560448201526064016020604051808303816000875af11580156101bb573d6000803e3d6000fd5b505050506040513d601f19601f820116820180604052508101906101df919061036b565b9050806102205760405162461bcd60e51b815260206004820152600f60248201526e151c985b9cd9995c8819985a5b1959608a1b60448201526064016100cf565b506001016100db565b5050505050505050565b60008083601f84011261024557600080fd5b50813567ffffffffffffffff81111561025d57600080fd5b6020830191508360208260051b850101111561027857600080fd5b9250929050565b6000806000806000806060878903121561029857600080fd5b863567ffffffffffffffff8111156102af57600080fd5b6102bb89828a01610233565b909750955050602087013567ffffffffffffffff8111156102db57600080fd5b6102e789828a01610233565b909550935050604087013567ffffffffffffffff81111561030757600080fd5b61031389828a01610233565b979a9699509497509295939492505050565b634e487b7160e01b600052603260045260246000fd5b60006020828403121561034d57600080fd5b81356001600160a01b038116811461036457600080fd5b9392505050565b60006020828403121561037d57600080fd5b8151801515811461036457600080fdfea2646970667358221220e052af7d5ed8acae828c01e9969b051e3203fbf4396ccec139a7364b6dc38d7864736f6c634300081c0033",
  "linkReferences": {},
  "deployedLinkReferences": {}
}